{
  "contractName": "Staker",
  "abi": [
    {
      "inputs": [
        {
          "internalType": "contract RewardToken",
          "name": "_rewardToken",
          "type": "address"
        },
        {
          "internalType": "bool",
          "name": "_enabledwithdraw",
          "type": "bool"
        }
      ],
      "stateMutability": "nonpayable",
      "type": "constructor"
    },
    {
      "inputs": [],
      "name": "owner",
      "outputs": [
        {
          "internalType": "address",
          "name": "",
          "type": "address"
        }
      ],
      "stateMutability": "view",
      "type": "function"
    },
    {
      "inputs": [],
      "name": "rewardToken",
      "outputs": [
        {
          "internalType": "contract RewardToken",
          "name": "",
          "type": "address"
        }
      ],
      "stateMutability": "view",
      "type": "function"
    },
    {
      "inputs": [
        {
          "internalType": "address",
          "name": "",
          "type": "address"
        }
      ],
      "name": "stakingToBalance",
      "outputs": [
        {
          "internalType": "uint256",
          "name": "",
          "type": "uint256"
        }
      ],
      "stateMutability": "view",
      "type": "function"
    },
    {
      "inputs": [
        {
          "internalType": "uint256",
          "name": "_stakingamount",
          "type": "uint256"
        }
      ],
      "name": "deposit",
      "outputs": [],
      "stateMutability": "nonpayable",
      "type": "function"
    },
    {
      "inputs": [],
      "name": "withdraw",
      "outputs": [],
      "stateMutability": "nonpayable",
      "type": "function"
    },
    {
      "inputs": [
        {
          "internalType": "address",
          "name": "_stakerAddress",
          "type": "address"
        }
      ],
      "name": "calculateRewardAmount",
      "outputs": [
        {
          "internalType": "uint256",
          "name": "",
          "type": "uint256"
        }
      ],
      "stateMutability": "view",
      "type": "function"
    }
  ],
  "bytecode": "0x608060405234801561001057600080fd5b50604051610b86380380610b86833981810160405281019061003291906100fe565b81600160006101000a81548173ffffffffffffffffffffffffffffffffffffffff021916908373ffffffffffffffffffffffffffffffffffffffff160217905550336000806101000a81548173ffffffffffffffffffffffffffffffffffffffff021916908373ffffffffffffffffffffffffffffffffffffffff16021790555080600160146101000a81548160ff02191690831515021790555050506101b8565b6000815190506100e38161018a565b92915050565b6000815190506100f8816101a1565b92915050565b6000806040838503121561011157600080fd5b600061011f858286016100e9565b9250506020610130858286016100d4565b9150509250929050565b60006101458261016a565b9050919050565b60008115159050919050565b60006101638261013a565b9050919050565b600073ffffffffffffffffffffffffffffffffffffffff82169050919050565b6101938161014c565b811461019e57600080fd5b50565b6101aa81610158565b81146101b557600080fd5b50565b6109bf806101c76000396000f3fe608060405234801561001057600080fd5b50600436106100625760003560e01c80633ccfd60b1461006757806384831fbc146100715780638da5cb5b146100a1578063b6b55f25146100bf578063ef39f11f146100db578063f7c618c11461010b575b600080fd5b61006f610129565b005b61008b6004803603810190610086919061055a565b610271565b60405161009891906106f5565b60405180910390f35b6100a9610289565b6040516100b69190610648565b60405180910390f35b6100d960048036038101906100d491906105ac565b6102ad565b005b6100f560048036038101906100f0919061055a565b6103be565b60405161010291906106f5565b60405180910390f35b610113610439565b604051610120919061069a565b60405180910390f35b600160149054906101000a900460ff16610178576040517f08c379a000000000000000000000000000000000000000000000000000000000815260040161016f906106b5565b60405180910390fd5b6000600360003373ffffffffffffffffffffffffffffffffffffffff1673ffffffffffffffffffffffffffffffffffffffff168152602001908152602001600020549050600160009054906101000a900473ffffffffffffffffffffffffffffffffffffffff1673ffffffffffffffffffffffffffffffffffffffff166323b872dd3330846040518463ffffffff1660e01b815260040161021b93929190610663565b602060405180830381600087803b15801561023557600080fd5b505af1158015610249573d6000803e3d6000fd5b505050506040513d601f19601f8201168201806040525081019061026d9190610583565b5050565b60036020528060005260406000206000915090505481565b60008054906101000a900473ffffffffffffffffffffffffffffffffffffffff1681565b600081116102f0576040517f08c379a00000000000000000000000000000000000000000000000000000000081526004016102e7906106d5565b60405180910390fd5b600160009054906101000a900473ffffffffffffffffffffffffffffffffffffffff1673ffffffffffffffffffffffffffffffffffffffff166323b872dd3330846040518463ffffffff1660e01b815260040161034f93929190610663565b602060405180830381600087803b15801561036957600080fd5b505af115801561037d573d6000803e3d6000fd5b505050506040513d601f19601f820116820180604052508101906103a19190610583565b5080600260008282546103b49190610721565b9250508190555050565b600080600360008473ffffffffffffffffffffffffffffffffffffffff1673ffffffffffffffffffffffffffffffffffffffff16815260200190815260200160002054905060006104118260025461045f565b905060006104218260025461048f565b905061042f816002546104bf565b9350505050919050565b600160009054906101000a900473ffffffffffffffffffffffffffffffffffffffff1681565b6000610487826104796064866104ef90919063ffffffff16565b61050590919063ffffffff16565b905092915050565b60006104b7826104a96064866104ef90919063ffffffff16565b61050590919063ffffffff16565b905092915050565b60006104e7826104d96064866104ef90919063ffffffff16565b61050590919063ffffffff16565b905092915050565b600081836104fd91906107a8565b905092915050565b600081836105139190610777565b905092915050565b60008135905061052a81610944565b92915050565b60008151905061053f8161095b565b92915050565b60008135905061055481610972565b92915050565b60006020828403121561056c57600080fd5b600061057a8482850161051b565b91505092915050565b60006020828403121561059557600080fd5b60006105a384828501610530565b91505092915050565b6000602082840312156105be57600080fd5b60006105cc84828501610545565b91505092915050565b6105de81610802565b82525050565b6105ed8161084a565b82525050565b6000610600601783610710565b915061060b826108cc565b602082019050919050565b6000610623602783610710565b915061062e826108f5565b604082019050919050565b61064281610840565b82525050565b600060208201905061065d60008301846105d5565b92915050565b600060608201905061067860008301866105d5565b61068560208301856105d5565b6106926040830184610639565b949350505050565b60006020820190506106af60008301846105e4565b92915050565b600060208201905081810360008301526106ce816105f3565b9050919050565b600060208201905081810360008301526106ee81610616565b9050919050565b600060208201905061070a6000830184610639565b92915050565b600082825260208201905092915050565b600061072c82610840565b915061073783610840565b9250827fffffffffffffffffffffffffffffffffffffffffffffffffffffffffffffffff0382111561076c5761076b61086e565b5b828201905092915050565b600061078282610840565b915061078d83610840565b92508261079d5761079c61089d565b5b828204905092915050565b60006107b382610840565b91506107be83610840565b9250817fffffffffffffffffffffffffffffffffffffffffffffffffffffffffffffffff04831182151516156107f7576107f661086e565b5b828202905092915050565b600061080d82610820565b9050919050565b60008115159050919050565b600073ffffffffffffffffffffffffffffffffffffffff82169050919050565b6000819050919050565b60006108558261085c565b9050919050565b600061086782610820565b9050919050565b7f4e487b7100000000000000000000000000000000000000000000000000000000600052601160045260246000fd5b7f4e487b7100000000000000000000000000000000000000000000000000000000600052601260045260246000fd5b7f5769746864726177206973206e6f7420656e61626c6564000000000000000000600082015250565b7f5374616b696e6720616d6f756e742073686f756c64206265206772656174657260008201527f207468616e203000000000000000000000000000000000000000000000000000602082015250565b61094d81610802565b811461095857600080fd5b50565b61096481610814565b811461096f57600080fd5b50565b61097b81610840565b811461098657600080fd5b5056fea26469706673582212209bc54fb28310f2c59bde2d444fa66f0d907e9ec39009def122ef68d3b8c6900564736f6c63430008020033",
  "immutableReferences": {},
  "source": "// SPDX-License-Identifier: MIT\npragma solidity ^0.8.2;\n\nimport './RewardToken.sol';\nimport \"@openzeppelin/contracts/utils/math/SafeMath.sol\";\n\ncontract Staker {\n\n  using SafeMath for uint256;\n\n  address public owner;\n  RewardToken public rewardToken;\n  bool internal enabledwithdraw;\n  uint totalStaked;\n\n  mapping(address => uint) public stakingToBalance;\n\n  constructor(RewardToken _rewardToken, bool _enabledwithdraw) \n  {\n    rewardToken = _rewardToken;\n    owner = msg.sender;\n    enabledwithdraw = _enabledwithdraw;\n  }\n\n  function deposit(uint _stakingamount) public\n  {\n    require(_stakingamount > 0, \"Staking amount should be greater than 0\");\n\n    //TODO : how to transfer with open zepelin;\n    rewardToken.transferFrom(msg.sender, address(this), _stakingamount);\n    totalStaked += _stakingamount;\n  }\n\n  function withdraw() public \n  {\n    require(enabledwithdraw, 'Withdraw is not enabled');\n    \n    uint balance = stakingToBalance[msg.sender];\n    rewardToken.transferFrom(msg.sender, address(this), balance);\n  }\n\n  //TODO : events\n  //TODO : CustomErrors\n  //TODO: Documentation\n  \n  function calculateRewardAmount(address _stakerAddress) public view returns (uint)\n  { \n    uint stakedBalance = stakingToBalance[_stakerAddress];\n    uint influencePercentage = calculateProportionalShare(stakedBalance, totalStaked);\n    uint rewardAmount = getRewardAmount(influencePercentage, totalStaked);\n    return getRewardAmountByRewardRate(rewardAmount, totalStaked);\n  }\n\n  function calculateProportionalShare(uint _stakingBalance, uint _totalStaked) internal pure returns (uint)\n  { \n    return _stakingBalance.mul(100).div(_totalStaked);\n  }\n\n  function getRewardAmount(uint _proportionalShare, uint _totalStaked) internal pure returns (uint)\n  {\n    return _proportionalShare.mul(100).div(_totalStaked);\n  }\n\n  function getRewardAmountByRewardRate(uint _rewardAmount, uint _rewardRate) internal pure returns (uint)\n  {\n    return _rewardAmount.mul(100).div(_rewardRate);\n  }\n}\n",
  "sourcePath": "/Users/santiagomarinrojas/Documents/cryptologic/contracts/Staker.sol",
  "compiler": {
    "name": "solc",
    "version": "0.8.2+commit.661d1103.Emscripten.clang"
  },
  "schemaVersion": "3.4.3",
  "updatedAt": "2021-10-06T02:34:43.799Z",
  "devdoc": {
    "kind": "dev",
    "methods": {},
    "version": 1
  },
  "userdoc": {
    "kind": "user",
    "methods": {},
    "version": 1
  }
}